:020000020000FC
:100000000FEF0DBF08E00EBF3F065B4F666D7D072B
:100010007F67777C395E797100E80093610004E0C6
:10002000009361000E946A0000E007B90FEF0AB96F
:1000300004B908B900E01FEF20E05FEF60E0E8E0FE
:10004000F0E0449145274BB905B906B135B330FF0F
:100050000C942C000C9448001017B9F30E946F0008
:1000600006B1101791F3102F309B0E945C00319B5A
:100070000E946300449145274BB935BB261731F4E4
:1000800060E0289829982A982B981C9A0C942500AF
:10009000A89A04E606BD43954436B9F6442763B9E9
:1000A00063956F7063B9261731F460E0289829983A
:1000B0002A982B981C9AC9CF319623952F7011F44A
:1000C000E8E0F0E0089531972A952F702F3009F479
:1000D0007096089503E005BD04E606BD089530E07E
:1000E00033953030E9F730E033953030E9F730E0E0
:0800F00033953030E9F7089563
:00000001FF
