:020000020000FC
:100000000FEF0DBF08E00EBF3F065B4F666D7D072B
:100010007F67777C395E797100E007B90FEF0AB925
:1000200008B900E01FEF20E05FEFE8E0F0E0449166
:1000300045274BB906B11017E9F30E943C0006B101
:100040001017C1F3102F309B0E942E00319B0E948D
:100050003500449145274BB90C941A0031962395ED
:100060002F7011F4E8E0F0E0089531972A952F7091
:100070002F3009F47096089530E033953030E9F769
:1000800030E033953030E9F730E033953030E9F740
:0A00900030E033953030E9F70895B1
:00000001FF
